:0400000080315E28C5
:10000800803120007F08FC00111C0B280C285B287D
:100018001110EC30970077309600442874088C0053
:100028007708203E8600870101088D0073088C0040
:10003800522874088C007608203E86008701010843
:100048008D0072088C00522874088C007508203EB8
:100058008600870101088D0071088C0052287408F9
:100068008C007908203E8600870101088D00700801
:100078008C00FF30FB007B08F800522852285228D9
:100088007808003A03191228013A03191D28033A7F
:1000980003192828013A0319332852280130FB0094
:1000A8007B08F8070130FB007B08FA075B287C080F
:1000B800FF0009008031A4288031C6208031093032
:1000C8002000B0003008F7000530B0003008F60016
:1000D8000A30B0003008F500F9017228C8307A02F9
:1000E800031C772878287228FA017708031D7D28D1
:1000F80080280130F70272287608031D84288C288E
:1001080009302000B0003008F7000130F6027228EC
:100118007908031D9028722809302000B0003008A3
:10012800F7000530B0003008F6000130F9027228F7
:1001380072287228722872287228722880315E28E4
:10014800F801F901FA01AC01AD01AE01AF01EF30E0
:1001580084008030850070308600003087000530CC
:100168008031E9208031DD30840080308500203006
:100178008600003087000C308031E9208031200073
:100188008031602873302100990023008C01210000
:100198008C0123008D0121008D01FF3020008C008F
:1001A800FF308D0011309800210011140B178B17A8
:1001B8000800C034F934A434B03499349234823409
:1001C800F834803490347F34FF34FE0012001E006F
:1001D800FE0BEA280034FE34FD34FB34F734FF34D8
:020000040001F9
:04000E00E4FFFFDE2E
:00000001FF
