:0400000080315928CA
:10000800803120007F08FB00111C0B280C28562883
:100018001110F63097003B309600F401F5014328A3
:1000280030088C007708203E8600870101088D0083
:100038002C088C00512830088C007C08203E860053
:10004800870101088D002D088C00512830088C008C
:100058007808203E8600870101088D002E088C0054
:10006800512830088C007908203E86008701010855
:100078008D002F088C00F601512851285128760848
:10008800003A03191428013A03191F28033A0319DF
:100098002A28013A0319352851280130FA007A082C
:1000A800F60756287B08FF0009008031CC288031EC
:1000B800E5208031F901F8010A302000B10031084B
:1000C800FC00F70167287908031D6B286E280130AA
:1000D800F9029128F808031D7228732883287C08E0
:1000E800031D772883280130F70205302000B1006E
:1000F8003108F8000930B1003108F9009128780872
:10010800031D872891280130F80209302000B1002A
:100118003108F9009128912891280030F300003027
:10012800F2000030F1000030F00000307302031DCF
:10013800A72800307202031DA72827307102031D6B
:10014800A72810307002031CAA28AB28AD286728FE
:1001580067280130F0070030F13D0030F23D0030F3
:10016800F33D00307302031DC32800307202031DE3
:10017800C32827307102031DC32810307002031CE6
:10018800C628C728AD2867286728672880315928D6
:10019800F001F101F201F301F401F501F601F701B3
:1001A800F801F901FC308400803085002030860099
:1001B80000308700113081310D21803120008031DD
:1001C8005B2873302100990023008C0121008C01E9
:1001D80023008D0121008D01FF3020008C00FF30AD
:1001E8008D0011309800210011140B178B13080093
:1001F800C034F934A434B034993492348234F834A5
:10020800803490347F34FF34FE34FD34FB34F734CB
:0E021800FF34FE0012001E00FE0B0E29003403
:020000040001F9
:04000E00E4FFFFDE2E
:00000001FF
